:100000000C945D000C9460050C9439050C948500EB
:100010000C9485000C9485000C9485000C9485004C
:100020000C9485000C9485000C9485000C9485003C
:100030000C9485000C9485000C9485000C9485002C
:100040000C94EF040C9485000C946C030C94460300
:100050000C9485000C9485000C9485000C9485000C
:100060000C9485000C9485000000000024002700FB
:100070002A0000000000250028002B0004040404CE
:100080000404040402020202020203030303030342
:10009000010204081020408001020408102001021F
:1000A00004081020000000080002010000030407FB
:1000B0000000000000000000EE0B11241FBECFEF77
:1000C000D8E0DEBFCDBF23E0A4E2B1E001C01D92C5
:1000D000AC32B207E1F711E0A0E0B1E0E2ECF0E20F
:1000E00002C005900D92A432B107D9F710E0CDE51A
:1000F000D0E004C02197FE010E94270FCC35D10724
:10010000C9F70E941E0C0C945F100C940000CF9253
:10011000DF92EF92FF920F931F93CF93DF936C01C7
:100120007A018B01C0E0D0E0CE15DF0589F0D8015F
:100130006D918D01D601ED91FC910190F081E02D42
:10014000C6010995892B11F47E0102C02196ECCFDE
:10015000C701DF91CF911F910F91FF90EF90DF903A
:10016000CF900895EF92FF920F931F93CF93DF9359
:1001700000D0CDB7DEB77C018B011A82198289814C
:100180009A818E159F0508F04CC0F801E80FF91F01
:10019000208130E0F901EE0FFF1FEE0FFF1FEA5440
:1001A000FD4F40815181220F331F220F331FCA019F
:1001B0009595879540FD04C0F901EC54FD4F0DC0A5
:1001C000D901AC54BD4FFC01E253FE4F0190F081C8
:1001D000E02D2D913C91E20FF31F0190F081E02D75
:1001E000A801BE016F5F7F4F82539E4F09958981A1
:1001F0009A819C012F5F3F4F3A832983F801E20FD8
:10020000F31F2081222349F0A801BE016F5F7F4FB9
:100210008EEC91E00E94110B04C002969A838983B0
:10022000AECF0F900F90DF91CF911F910F91FF9064
:10023000EF900895089580E090E00895FC01538DBB
:10024000448D252F30E0842F90E0821B930B5417B0
:1002500010F0CF96089501970895FC01918D828D3D
:10026000981761F0828DDF01A80FB11D5D968C910A
:10027000928D9F5F9F73928F90E008958FEF9FEF15
:100280000895FC01918D828D981731F0828DE80FD1
:10029000F11D858D90E008958FEF9FEF0895FC018B
:1002A000918D228D892F90E0805C9F4F821B910958
:1002B0008F739927089588E291E00E944F0121E011
:1002C000892B09F420E0822F0895FC01848DDF0141
:1002D000A80FB11DA35ABF4F2C91848D90E00196B9
:1002E0008F739927848FA689B7892C93A089B189A8
:1002F0008C9180648C93938D848D981306C00288B2
:10030000F389E02D80818F7D80830895EF92FF92A5
:100310000F931F93CF93DF93EC0181E0888F9B8D28
:100320008C8D981305C0E889F989808185FD24C0EA
:10033000F62E0B8D10E00F5F1F4F0F731127E02E6D
:100340008C8DE8120CC00FB607FCFACFE889F9894A
:10035000808185FFF5CFCE010E946501F1CF8B8DA5
:10036000FE01E80FF11DE35AFF4FF0820B8FEA897F
:10037000FB898081806207C0EE89FF896083E889FC
:10038000F98980818064808381E090E0DF91CF9162
:100390001F910F91FF90EF900895CF93DF93EC01A1
:1003A000888D8823C9F0EA89FB89808185FD05C095
:1003B000A889B9898C9186FD0FC00FB607FCF5CFCF
:1003C000808185FFF2CFA889B9898C9185FFEDCF17
:1003D000CE010E946501E7CFDF91CF91089580E0C3
:1003E00090E0892B29F00E945B0181110C940000A0
:1003F0000895CF93DF9390E0FC01E057FF4F2491E5
:10040000FC01E458FF4F8491882361F190E0880F4C
:10041000991FFC01E859FF4FC591D491FC01EE589A
:10042000FF4FA591B491611109C09FB7F8948881DD
:10043000209582238883EC912E230BC0623061F4D7
:100440009FB7F8943881822F809583238883EC911D
:100450002E2B2C939FBF06C08FB7F894E8812E2BCC
:1004600028838FBFDF91CF9108958E3008F08E5092
:100470008770806480937C0080917A008064809390
:100480007A0080917A0086FDFCCF809178002091DF
:10049000790090E0922B08953FB7F8948091CA01BB
:1004A0009091CB01A091CC01B091CD0126B5A89B34
:1004B00005C02F3F19F00196A11DB11D3FBFBA2FF6
:1004C000A92F982F8827820F911DA11DB11DBC0156
:1004D000CD0142E0660F771F881F991F4A95D1F71B
:1004E00008952FB7F8946091C6017091C70180916B
:1004F000C8019091C9012FBF08950895CF93DF934C
:10050000EC0185E090E09F838E838EE090E09987F8
:1005100088878FE090E09B878A8786E090E09983C8
:10052000888381E190E09D838C8380E190E09B83D0
:100530008A8361E085E00E94F90161E088850E947C
:10054000F90161E08A850E94F90161E088810E94D9
:10055000F90161E08C810E94F90161E08A81DF91FB
:10056000CF910C94F9010E945A10682F88E291E013
:100570000C948601009769F0FC0101900020E9F7D6
:100580003197AF01481B590BBC0188E291E00C94F4
:10059000870080E090E008958F929F92AF92BF9283
:1005A0000F931F93CF93DF93CDB7DEB7A1970FB60D
:1005B000F894DEBF0FBECDBF19A2423008F44AE066
:1005C0008E010F5D1F4F842E912CA12CB12CA50103
:1005D00094010E94F10EE62FB901CA0101501109E0
:1005E000EA3014F4E05D01C0E95CD801EC93232B00
:1005F000242B252B61F7C8010E94BA02A1960FB6E1
:10060000F894DEBF0FBECDBFDF91CF911F910F9148
:10061000BF90AF909F908F900895CF92DF92EF920E
:10062000FF92CF93DF936C01990FEE08FF08F7FE5E
:100630001AC0E0912801F09129010190F081E02D8C
:100640006DE288E291E00995EC0166277727CB01FE
:100650006C197D098E099F094AE00E94CC027C0139
:10066000EC0EFD1E06C04AE0C701B6010E94CC0296
:100670007C018CE191E00E94BA028E0D9F1DDF91FA
:10068000CF91FF90EF90DF90CF9008951F920F923F
:100690000FB60F9211242F933F934F935F936F9355
:1006A0007F938F939F93AF93BF93EF93FF9388E2D2
:1006B00091E00E946501FF91EF91BF91AF919F91F1
:1006C0008F917F916F915F914F913F912F910F90FB
:1006D0000FBE0F901F9018951F920F920FB60F929A
:1006E00011242F938F939F93EF93FF93E091380101
:1006F000F09139018081E0913E01F0913F0182FD4E
:1007000012C09081809141018F5F8F7320914201CF
:10071000821751F0E0914101F0E0E85DFE4F958FC6
:100720008093410101C08081FF91EF919F918F9152
:100730002F910F900FBE0F901F90189590E0FC0125
:10074000EC55FF4F3491FC01E057FF4F2491FC0121
:10075000E458FF4FE491EE2309F43BC0332339F111
:10076000333091F038F43130A9F0323001F584B5EE
:100770008F7D12C0373091F03830A1F03430B9F4A9
:10078000809180008F7D03C0809180008F7780935F
:1007900080000DC084B58F7784BD09C08091B00002
:1007A0008F7703C08091B0008F7D8093B000F0E020
:1007B000EE0FFF1FEE58FF4FA591B4918FB7F8943D
:1007C000EC91611103C020952E2301C02E2B2C9398
:1007D0008FBF08951F93CF93DF93182FEB0161E034
:1007E0000E94F901209711F460E004C0CF3FD105C9
:1007F00039F461E0812FDF91CF911F910C949E031A
:10080000E12FF0E0EC55FF4FE491E330F9F048F4CC
:10081000E130B9F0E230A1F584B5806284BDC8BD95
:1008200034C0E730E9F0E83019F1E43049F580915F
:100830008000806280938000D0938B00C0938A00F8
:1008400024C084B5806884BDC7BD1FC0809180006E
:10085000806880938000D0938900C093880015C081
:100860008091B00080688093B000C093B3000DC049
:100870008091B00080628093B000C093B40005C046
:10088000C038D1050CF0B5CFAFCFDF91CF911F911C
:1008900008958F929F92AF92BF92CF92DF92EF9284
:1008A000FF926B017C010E944C024B015C01C11460
:1008B000D104E104F104F1F00E944C02DC01CB010F
:1008C00088199909AA09BB09883E9340A105B10579
:1008D00070F321E0C21AD108E108F10888EE880E11
:1008E00083E0981EA11CB11CC114D104E104F104E1
:1008F00019F7DDCFFF90EF90DF90CF90BF90AF90D2
:100900009F908F900895FF920F931F93CF93DF9343
:100910008C0102561F4FF8012081318137FF03C03F
:100920001182108208C0253B31052CF024EB30E009
:10093000F801318320832BE0F22EEC01C056DF4F0B
:1009400061E089E00E949E03F80180819181F89E18
:10095000F001F99EF00D1124EC50FE4FE230F1054C
:1009600038F0EE0FFF1FEE0FFF1F35973197F1F7AD
:1009700060E089E00E949E0364E170E080E090E026
:100980000E944904888199819C0121503109398351
:10099000288318161906A4F219821882DF91CF91C4
:1009A0001F910F91FF900895CF93DF93EC0182E1A7
:1009B0000E943502FE01EC55FF4F9183808361E078
:1009C00070E080E090E00E94490483E10E943502DB
:1009D000CA55DF4F99838883DF91CF9108951F9285
:1009E0000F920FB60F9211242F933F938F939F93E3
:1009F000AF93BF938091C6019091C701A091C801A8
:100A0000B091C9013091C50123E0230F2D3720F4A7
:100A10000196A11DB11D05C026E8230F0296A11D58
:100A2000B11D2093C5018093C6019093C701A09387
:100A3000C801B093C9018091CA019091CB01A091E6
:100A4000CC01B091CD010196A11DB11D8093CA01C9
:100A50009093CB01A093CC01B093CD01BF91AF9106
:100A60009F918F913F912F910F900FBE0F901F90EC
:100A700018951F920F920FB60F9211242F933F9348
:100A80004F935F936F937F938F939F93AF93BF9396
:100A9000EF93FF93E0910201F09103010995FF911B
:100AA000EF91BF91AF919F918F917F916F915F91E6
:100AB0004F913F912F910F900FBE0F901F9018955F
:100AC0001F920F920FB60F9211242F933F934F93C3
:100AD0005F936F937F938F939F93AF93BF93EF93A6
:100AE000FF93E0910001F09101010995FF91EF91D1
:100AF000BF91AF919F918F917F916F915F914F9136
:100B00003F912F910F900FBE0F901F901895CF938C
:100B1000DF93EC01C855DF4FDC01A656BF4FFC0147
:100B2000E456FF4F8D919C91119720813181280FC0
:100B3000391F3595279588819981280F391F398369
:100B400028831D921C9211821082DF91CF9108950B
:100B50002091260130912701FC01E656FF4F40818C
:100B60005181240F351F318320832091240130913E
:100B70002501329640815181240F351F3183208316
:100B8000E998E0E0F1E02DE732E033832283E89852
:100B900031832083FC01EC57FF4F8081918182706B
:100BA000992791838083109225011092240110923D
:100BB0002701109226010895809126019091270126
:100BC0000196909327018093260108958091240136
:100BD0009091250101969093250180932401089519
:100BE0000895FC01E059FF4F808191810297FB013C
:100BF000918380830895FB01808191810196FA01A0
:100C0000E80FF91F2081222321F0FB0191838083CB
:100C1000F2CF0895CF92DF92EF92FF920F931F933E
:100C2000CF93DF93FC01EE58FF4FC080D180E2806C
:100C3000F380EB0128813981FA01E20FF31FA181D2
:100C40008C01C4E0AC9F000D111D1124D801AE58D9
:100C5000BF4FCD91DC91119786010C1B1D0BE80154
:100C60001281FC01E10FF11DE10FF11DEE57FF4F65
:100C70000190F081E02DEC17FD070CF045C0CD92FE
:100C8000DD92ED92FC9213972D5F3F4FEB0139837C
:100C90002883FA01E20FF31F208130E0F901FA9670
:100CA000EE0FFF1FEE0FFF1FE80FF91F0190F081FD
:100CB000E02D220F331F220F331FDF01B595A795BB
:100CC000280F391FE0FD04C0F901EA51FF4F0EC0A3
:100CD000F901EA51FF4FEC01CA0FDB1F0990D881DF
:100CE000C02D20813181FE01E20FF31F0190F081C0
:100CF000E02D8A0F9B1FDF91CF911F910F91FF90E5
:100D0000EF90DF90CF900994DF91CF911F910F91D9
:100D1000FF90EF90DF90CF900C94FB05AF92BF92C5
:100D2000CF92DF92EF92FF920F931F93CF93DF93B7
:100D3000EC018B017A01FB01C080D180FFEFCF1A5B
:100D4000DF0AFA01EC0DFD1D2081820F911D820F3B
:100D5000911DFC01EE57FF4FA080B180FB01D182B5
:100D6000C0821A141B040CF045C0F80180819181E7
:100D70009C012F5F3F4F31832083F701E80FF91F5C
:100D80008081882381F1F701E20FF31F208130E099
:100D9000F901FA96EE0FFF1FEE0FFF1FEC0FFD1F7C
:100DA00040815181220F331F220F331FCA019595B5
:100DB00087952C0F3D1FF901EA51FF4F40FF0AC0F4
:100DC000DE01A80FB91F4D915C9120813181FA019C
:100DD000E20FF31F0190F081E02DA701B8018C0F05
:100DE0009D1F0995C2CFF801D182C082F1E0AF1AF0
:100DF000B108B7CFA701B801CE01DF91CF911F9104
:100E00000F91FF90EF90DF90CF90BF90AF900C9438
:100E1000FB05EF92FF920F931F93CF93DF938C010B
:100E2000EB017A0128813981FA01E20FF31F418138
:100E3000840F911D840F911DDC01AE57BF4F6D9142
:100E40007C9142812D5F3F4FF701E20FF31F5081EC
:100E5000C801850F911D850F911DFC01EE57FF4FB5
:100E6000808191813983288340FF03C06817790707
:100E700089F141FF03C06817790764F142FF3EC062
:100E8000861797073CF13AC099838883880F991F8A
:100E9000880F991FDC01AA51BF4FA00FB11FED9120
:100EA000FC91119712962D913C911397C90195953C
:100EB000879520FF0AC0D801A80FB91F2D913C913A
:100EC000E20FF31F0190F081E02DA701BE01800F1A
:100ED000911F0995888199810196F701E80FF91F03
:100EE00020812F3F89F6A701BE01C801DF91CF9174
:100EF0001F910F91FF90EF900C94FB0543FF3EC0B4
:100F0000888199819C012F5F3F4F39832883F701A6
:100F1000E80FF91F80818F3F99F7288139812F5F72
:100F20003F4FF701E20FF31F8081882339F13983A6
:100F30002883220F331F220F331FD901AA51BF4F1D
:100F4000A00FB11FED91FC91119712962D913C913C
:100F50001397C9019595879520FF0AC0D801A80F5E
:100F6000B91F2D913C91E20FF31F0190F081E02D0C
:100F7000A701BE01800F911F0995CFCFDF91CF91BF
:100F80001F910F91FF90EF900895EF92FF920F93B2
:100F90001F93CF93DF938C017B01FB0180819181B3
:100FA000EA01C80FD91F8A819801280F311D280F27
:100FB000311DD901AE57BF4F0D90BC91A02D8C8132
:100FC0009801280F311D280F311D2E573F4FF90171
:100FD000608171819B819330B1F040F4913079F060
:100FE000923011F5AD01461B570B29C09530C1F069
:100FF00090F09630C9F4AB014A235B2320C0AD01C9
:10100000460F571F1CC0A69FA001A79F500DB69F5B
:10101000500D112414C0CD010E94DD0EAB010FC094
:10102000AB014A2B5B2B0BC089819801280F311D26
:10103000280F311DD901AE57BF4F4D915C91898169
:101040009801280F311D280F311DD901AE57BF4F10
:101050004D935C93F7018081918104969183808305
:10106000DF91CF911F910F91FF90EF900895CF9353
:10107000DF93DB012D913C911197EA01C20FD31F41
:10108000E981F0E04A81242F2F775B816FEF269F63
:1010900090011124250F311D3A9547FF03C031956A
:1010A00021953109EF5BFF4FEE0FFF1FE80FF91F8E
:1010B000318320838D919C91119703968D939C93FE
:1010C000DF91CF910895FC01EC57FF4F20813181D2
:1010D0002160318320830895FC01EC57FF4F11827A
:1010E00010829C01245F3F4F4217530739F47497D5
:1010F000808191810297FB01918380830895809183
:10110000240190912501019690932501809324015B
:10111000E8988DE792E09093010180930001089593
:101120008091260190912701019690932701809349
:101130002601E9988DE792E09093030180930201E4
:101140000895FC01EC57FF4F208121FF15C020912D
:10115000260130912701769640815181240F351F59
:1011600031832083209124013091250132968081A2
:101170009181820F931F1BC08CED95E0909303012A
:1011800080930201809169008C6080936900E99AE4
:1011900086EE95E0909301018093000180916900B3
:1011A000836080936900E89A808191818260918355
:1011B0008083109225011092240110922701109231
:1011C00026010895AF92BF92CF92DF92EF92FF92E5
:1011D0000F931F93CF93DF9300D0CDB7DEB78C0171
:1011E0007B015C0184E8A80EB11CF501808191812E
:1011F0009C0136952795857F826091838083F22FAD
:10120000F170CF2E20FF18C0809126019091270108
:10121000F801E656FF4F20813181820F931F9183A1
:101220008083809124019091250132962081318123
:10123000820F931F918380831092270110922601C1
:10124000109225011092240180E998E09093030107
:1012500080930201809169008C6080936900E99A13
:101260008FE798E0909301018093000180916900DD
:10127000836080936900E89A8BE0D82E80912601E4
:1012800090912701892B31F08091240190912501C3
:10129000892B71F4DA94DD2059F064E170E080E08C
:1012A00090E049835A830E9449045A814981E6CFDC
:1012B000E9988DE792E09093030180930201E8980A
:1012C0009093010180930001809126019091270164
:1012D000892B09F44CC08091240190912501892B20
:1012E00009F445C08091260190912701F801E65646
:1012F000FF4F20813181820F931F918380838091E2
:10130000240190912501329620813181820F931F13
:10131000918380831092270110922601109225015B
:1013200010922401CC2081F0B701C8010F900F90DA
:10133000DF91CF911F910F91FF90EF90DF90CF90B1
:10134000BF90AF900C94A108F501808191818D7FB1
:10135000918380830F900F90DF91CF911F910F9118
:10136000FF90EF90DF90CF90BF90AF900895F50180
:1013700080819181886091838083B4CFDB01ED917E
:10138000FC9111979F012F5F3F4F2D933C93FA01E2
:10139000E20FF31F2081820F911D820F911DFC012E
:1013A000EE57FF4F60817181072E000C880B990B5F
:1013B0000C94490460E085E00E949E0360E086E0B2
:1013C0000C949E03EF92FF920F931F93CF93DF93A2
:1013D000EC01DC01A257BF4FFC01E856FF4F2D91F5
:1013E0003C9180819181289F8001299F100D389F19
:1013F000100D1124012F110F110BB80117FF04C09C
:1014000066277727601B710B85E00E94EA037E0147
:1014100082E9E80EF11C61E0F7018081918180177B
:1014200091070CF060E08EE00E949E03F70180813E
:10143000918191958195910961E0081719070CF048
:1014400060E08FE00E949E03FE01E457FF4FCA5602
:10145000DF4F2081318188819981289FE001299F78
:10146000D00D389FD00D1124CD2FDD0FDD0BBE0127
:10147000D7FF04C0662777276C1B7D0B86E00E9490
:10148000EA0361E0F701808191818C179D070CF0E0
:1014900060E081E10E949E03F70180819181919536
:1014A0008195910961E0C817D9070CF060E080E1EF
:1014B000DF91CF911F910F91FF90EF900C949E03BD
:1014C0000F931F93CF93DF939C01FB01EA01DC0193
:1014D000AC56BF4F80E09C9168E671E00E94DD0E43
:1014E0008B010F731127CB01807C992780349105E4
:1014F00081F1B4F4892B09F054C0D901A856BF4F2B
:1015000049EF4003C001419F900D1124939511961E
:101510009C938E93129780E091E0801B910B3FC0CB
:101520008038910551F1803C9105D9F5D901A85633
:10153000BF4FC80180549F4F11969C938E93129772
:1015400047E0409FC001419F900D1124805C9109AC
:1015500026C0D901A856BF4F80E49FEF801B910B96
:1015600011969C938E93129749EF4003C001419FBF
:10157000900D112480549F4F12C0D901A856BF4F1F
:1015800047E0409FC001419F900D11249A9511960C
:101590009C938E9312971A950D931C9302C08D9372
:1015A0009C93AE01BF01C901DF91CF911F910F91B3
:1015B0000C94E209CF93DF93FC01E657FF4FA08123
:1015C000B1813296B183A0833296EC01C057DF4FD0
:1015D0000990D881C02DAC9F9001AD9F300DBC9F6C
:1015E000300D1124232F220F220B30832183DF9112
:1015F000CF910C94E209CF93DF93EC018DE390E05F
:101600000E94B502CE58DF4F688179818A819B8123
:101610004AE00E94CC028CE191E0DF91CF910C94E2
:10162000BA02EF92FF920F931F93CF93DF93EC01D7
:101630007B018A018FE191E00E94BA02CE010C96F3
:101640000817190719F083E690E002C080E790E0E0
:101650000E94B502A801B701CE01DF91CF911F9181
:101660000F91FF90EF900C946C080F931F93CF9302
:10167000DF93FB01308171E0730F272F2F7762E03A
:10168000630FAFEF2A9F90011124260F311D3A9569
:1016900077FF03C0319521953109EC01CA57DF4F1F
:1016A00039832883DC01A059BF4F6D917C9111973C
:1016B000260F371F2536310578F08F01BF010E94B4
:1016C000110B888199810296E80128813981820F66
:1016D000931F9983888322C011963C932E93208177
:1016E00031812E5F3F4F318320832D913C911197A3
:1016F0006217730798F4208131812F5F3F4F318348
:1017000020838C01060F171F240F351FE901288144
:101710002150E8012C876F5F7F4FE7CFDF91CF919A
:101720001F910F910895FC01E059FF4F1182108223
:10173000FC0114860C94350BEF92FF920F931F93CC
:10174000CF93DF938C01EB017A018DE390E00E944F
:10175000B502E881F9819F012F5F3F4F39832883CC
:10176000F701E20FF31F40819801240F311D240F70
:10177000311DF901EE57FF4F80819181DF91CF91AB
:101780001F910F91FF90EF900C940D030F931F93F7
:10179000CF93DF938C010E571F4FEC01CA51DF4FDF
:1017A0008DE390E00E94B502F801819191918F0143
:1017B0000E940D030C171D0799F7DF91CF911F9120
:1017C0000F910895FC01E059FF4F40815181BC0108
:1017D000645F7F4F88E291E00C948700E8E2F1E0DB
:1017E0001382128288EE93E0A0E0B0E084839583B8
:1017F000A683B7838EE091E09183808385EC90E0AF
:101800009587848784EC90E09787868780EC90E0CA
:10181000918B808B81EC90E0938B828B82EC90E0BB
:10182000958B848B86EC90E0978B868B118E128E35
:10183000138E148E8EEC91E00C947E02CF93DF9386
:10184000CDB7DEB72C970FB6F894DEBF0FBECDBF75
:10185000789484B5826084BD84B5816084BD85B58B
:10186000826085BD85B5816085BD80916E00816097
:1018700080936E001092810080918100826080933D
:10188000810080918100816080938100809180003F
:101890008160809380008091B10084608093B1006A
:1018A0008091B00081608093B00080917A00846064
:1018B00080937A0080917A00826080937A00809190
:1018C0007A00816080937A0080917A0080688093AA
:1018D0007A001092C100CE0101960E947E028CE037
:1018E000FE013196AEECB1E001900D928A95E1F7E0
:1018F000E0913801F091390182E08083E091340178
:10190000F09135011082E0913601F09137018FECB2
:10191000808310924001E0913C01F0913D0186E00E
:101920008083E0913A01F0913B0180818061808366
:10193000E0913A01F0913B01808188608083E091E1
:101940003A01F0913B01808180688083E0913A0107
:10195000F0913B0180818F7D808360E087E00E9471
:10196000F90161E088E00E94F90182E10E943502FC
:10197000909373028093720261E070E080E090E0E7
:101980000E94490483E10E9435029093750280937E
:10199000740261E085E00E94F90161E08EE00E943E
:1019A000F90161E08FE00E94F90161E086E00E94A8
:1019B000F90161E081E10E94F90161E080E10E94AA
:1019C000F9011092DA0110923F0210923E02109239
:1019D0004002109241021092420210924302E0E54E
:1019E000F2E01192119222E0E43BF207D1F780E499
:1019F00090E0909357028093560284EB90E090938E
:101A000059028093580290935B0280935A0283EEAE
:101A100090E090935F0280935E028FE99FEF909336
:101A20005D0280935C0210922701109226011092B1
:101A30002501109224018FEF90E09093650280932E
:101A4000640290936702809366028CE390E0909327
:101A50006102809360028AE590E090936D0280932A
:101A60006C0281E19BE09093B5028093B4021092E6
:101A7000B7021092B6028CE698E09093B902809378
:101A8000B8021092BB021092BA0283E698E09093DB
:101A9000BD028093BC021092BF021092BE0282EE81
:101AA0009BE09093C1028093C0021092C3021092F7
:101AB000C20285E39BE09093C5028093C40210921A
:101AC000C7021092C60283E99BE09093C9028093FB
:101AD000C8021092CB021092CA0286EC9BE090934F
:101AE000CD028093CC021092CF021092CE028CE9EC
:101AF0009BE09093D1028093D0021092D302109277
:101B0000D20287E398E09093D5028093D40210929A
:101B1000D7021092D60285EC97E09093D902809379
:101B2000D8021092DB021092DA0289E097E09093DB
:101B3000DD028093DC021092DF021092DE028EE85A
:101B400096E09093E1028093E0021092E3021092FB
:101B5000E2028BEF95E09093E5028093E40210920D
:101B6000E7021092E60281EF95E09093E9028093FC
:101B7000E8021092EB021092EA028EEB99E0909349
:101B8000ED028093EC021092EF021092EE028AE0D6
:101B900096E09093F1028093F0021092F30210927B
:101BA000F2028BEF9AE09093F5028093F402109288
:101BB000F7021092F60282EE99E09093F902809378
:101BC000F8021092FB021092FA028AED99E09093CB
:101BD000FD028093FC021092FF021092FE028AED39
:101BE0009AE09093010380930003109203031092F4
:101BF000020380E69AE09093050380930403109219
:101C000007031092060382EE98E0909309038093F5
:101C1000080310920B0310920A0380EF95E0909353
:101C20000D0380930C0310920F0310920E0381EAB0
:101C300098E0909311038093100310921303109275
:101C4000120328EA35E03093150320931403109211
:101C500017031092160327E835E0309319032093F9
:101C6000180310921B0310921A0323E834E03093F8
:101C70001D0320931C0310921F0310921E039093C8
:101C8000210380932003109223031092220384EDFA
:101C900094E09093250380932403109227031092DD
:101CA00026030E9471026093400270934102809368
:101CB00042029093430288E291E00E944F0118167D
:101CC00019060CF051C088E291E00E944F017C019E
:101CD0000E942D0F8C016C015C01AE0CBF1CCA145C
:101CE000DB0499F10E94710260933001709331011D
:101CF0008093320190933301E0912801F091290102
:101D00000284F385E02D88E291E0099597FF28C0D1
:101D10000E94710240903001509031016090320178
:101D200070903301DC01CB0184199509A609B7092C
:101D300040902C0150902D0160902E0170902F0149
:101D400084159505A605B705B8F2B801C7010E942C
:101D5000B2000115110541F0C8010E94C20F04C074
:101D6000F60181936F01BBCF8091520280FF08C0C2
:101D70006AED71E080913E0290913F020E94B200B4
:101D800060914002709141028091560290915702F9
:101D90008B01080F191F0E9471029801261B370B37
:101DA000B9011216130634F4072E000C880B990B98
:101DB0000E9449040E94EF0174CF97FB072E16F48E
:101DC000009407D077FD09D00E94130F07FC05D0BF
:101DD0003EF4909581959F4F0895709561957F4F42
:101DE0000895A1E21A2EAA1BBB1BFD010DC0AA1F5C
:101DF000BB1FEE1FFF1FA217B307E407F50720F074
:101E0000A21BB30BE40BF50B661F771F881F991FEE
:101E10001A9469F760957095809590959B01AC0137
:101E2000BD01CF010895AA1BBB1B51E107C0AA1F2A
:101E3000BB1FA617B70710F0A61BB70B881F991F6B
:101E40005A95A9F780959095BC01CD010895EE0FA4
:101E5000FF1F0590F491E02D0994CF93DF9382301A
:101E6000910510F482E090E0E0912A03F0912B03B9
:101E700020E030E0C0E0D0E0309711F140815181A6
:101E800048175907C0F04817590761F482819381B8
:101E9000209719F09B838A832BC090932B03809308
:101EA0002A0326C02115310519F04217530718F4EB
:101EB0009A01BE01DF01EF010280F381E02DDCCF4A
:101EC0002115310509F1281B390B2430310590F417
:101ED00012968D919C9113976115710521F0FB016C
:101EE0009383828304C090932B0380932A03FD0184
:101EF000329644C0FD01E20FF31F8193919322506B
:101F000031092D933C933AC0209128033091290345
:101F1000232B41F4209106013091070130932903CE
:101F200020932803209104013091050121153105EA
:101F300041F42DB73EB74091080150910901241B8F
:101F4000350BE0912803F0912903E217F307A0F481
:101F50002E1B3F0B2817390778F0AC014E5F5F4FFF
:101F60002417350748F04E0F5F1F50932903409305
:101F700028038193919302C0E0E0F0E0CF01DF916C
:101F8000CF9108950F931F93CF93DF93009709F498
:101F90008CC0FC0132971382128200912A031091A7
:101FA0002B030115110581F420813181820F931FCC
:101FB00020912803309129032817390779F5F093E8
:101FC0002903E093280371C0D80140E050E0AE1728
:101FD000BF0750F412962D913C911397AD01211536
:101FE000310509F1D901F3CF9D01DA013383228351
:101FF00060817181860F971F8217930769F4EC0146
:1020000028813981260F371F2E5F3F4F3183208370
:102010008A819B8193838283452B29F4F0932B0340
:10202000E0932A0342C01396FC93EE931297ED01BE
:10203000499159919E01240F351FE217F30771F45E
:1020400080819181840F951F029611969C938E93A7
:102050008281938113969C938E931297E0E0F0E037
:10206000D80112968D919C911397009719F0F80161
:102070008C01F6CF8D919C9198012E5F3F4F820F7E
:10208000931F20912803309129032817390769F4F9
:10209000309729F410922B0310922A0302C0138266
:1020A00012821093290300932803DF91CF911F918F
:1020B0000F91089581E090E0F8940C945F10F894EB
:0220C000FFCF50
:1020C2007D027D0200002C038000000000008601DA
:1020D20087001E01CD014F012D0141010D0A00456E
:0420E20072725F00B7
:107E0000112484B714BE81FFF0D085E080938100F7
:107E100082E08093C00088E18093C10086E0809377
:107E2000C20080E18093C4008EE0C9D0259A86E02C
:107E300020E33CEF91E0309385002093840096BBD3
:107E4000B09BFECF1D9AA8958150A9F7CC24DD24C4
:107E500088248394B5E0AB2EA1E19A2EF3E0BF2EE7
:107E6000A2D0813461F49FD0082FAFD0023811F036
:107E7000013811F484E001C083E08DD089C08234E0
:107E800011F484E103C0853419F485E0A6D080C0E4
:107E9000853579F488D0E82EFF2485D0082F10E0AE
:107EA000102F00270E291F29000F111F8ED06801E7
:107EB0006FC0863521F484E090D080E0DECF843638
:107EC00009F040C070D06FD0082F6DD080E0C81688
:107ED00080E7D80618F4F601B7BEE895C0E0D1E017
:107EE00062D089930C17E1F7F0E0CF16F0E7DF06D8
:107EF00018F0F601B7BEE89568D007B600FCFDCFD4
:107F0000A601A0E0B1E02C9130E011968C91119780
:107F100090E0982F8827822B932B1296FA010C0160
:107F200087BEE89511244E5F5F4FF1E0A038BF0790
:107F300051F7F601A7BEE89507B600FCFDCF97BE46
:107F4000E89526C08437B1F42ED02DD0F82E2BD052
:107F50003CD0F601EF2C8F010F5F1F4F84911BD097
:107F6000EA94F801C1F70894C11CD11CFA94CF0C13
:107F7000D11C0EC0853739F428D08EE10CD085E9AC
:107F80000AD08FE07ACF813511F488E018D01DD067
:107F900080E101D065CF982F8091C00085FFFCCF94
:107FA0009093C60008958091C00087FFFCCF809118
:107FB000C00084FD01C0A8958091C6000895E0E648
:107FC000F0E098E1908380830895EDDF803219F02E
:107FD00088E0F5DFFFCF84E1DECF1F93182FE3DFCA
:107FE0001150E9F7F2DF1F91089580E0E8DFEE27F6
:047FF000FF270994CA
:027FFE00040479
:0400000300007E007B
:00000001FF