:100000000C9462000C9413040C94EC030C948A007E
:100010000C948A000C948A000C948A000C948A0038
:100020000C948A000C948A000C948A000C948A0028
:100030000C948A000C948A000C948A000C948A0018
:100040000C94A2030C948A000C9466020C94400257
:100050000C948A000C948A000C948A000C948A00F8
:100060000C948A000C948A000000000024002700F1
:100070002A0000000000250028002B0000000000DE
:1000800023002600290004040404040404040202DA
:100090000202020203030303030301020408102007
:1000A0004080010204081020010204081020000012
:1000B0000008000201000003040700000000000027
:1000C00000006F0F11241FBECFEFD8E0DEBFCDBF01
:1000D00023E0A4E3B1E001C01D92A438B207E1F728
:1000E00011E0A0E0B1E0EAE6F2E202C005900D9274
:1000F000A433B107D9F710E0C2E6D0E004C02197DD
:10010000FE010E94FB0FC136D107C9F70E940B0CFC
:100110000C9433110C940000089580E090E0089551
:10012000FC01538D448D252F30E0842F90E0821BFD
:10013000930B541710F0CF96089501970895FC0182
:10014000918D828D981761F0828DDF01A80FB11D0E
:100150005D968C91928D9F5F9F73928F90E0089532
:100160008FEF9FEF0895FC01918D828D981731F0EC
:10017000828DE80FF11D858D90E008958FEF9FEF40
:100180000895FC01918D228D892F90E0805C9F4F16
:10019000821B91098F739927089581E491E00E9451
:1001A000C10021E0892B09F420E0822F0895FC0191
:1001B000848DDF01A80FB11DA35ABF4F2C91848DF0
:1001C00090E001968F739927848FA689B7892C9325
:1001D000A089B1898C9180648C93938D848D9813C0
:1001E00006C00288F389E02D80818F7D8083089589
:1001F000EF92FF920F931F93CF93DF93EC0181E077
:10020000888F9B8D8C8D981305C0E889F989808132
:1002100085FD24C0F62E0B8D10E00F5F1F4F0F736E
:100220001127E02E8C8DE8120CC00FB607FCFACF18
:10023000E889F989808185FFF5CFCE010E94D7003A
:10024000F1CF8B8DFE01E80FF11DE35AFF4FF082D5
:100250000B8FEA89FB898081806207C0EE89FF8964
:100260006083E889F98980818064808381E090E0FF
:10027000DF91CF911F910F91FF90EF900895CF9351
:10028000DF93EC01888D8823C9F0EA89FB8980819E
:1002900085FD05C0A889B9898C9186FD0FC00FB670
:1002A00007FCF5CF808185FFF2CFA889B9898C91B1
:1002B00085FFEDCFCE010E94D700E7CFDF91CF9130
:1002C000089580E090E0892B29F00E94CD008111F3
:1002D0000C9400000895833081F028F4813099F067
:1002E0008230A1F008958730A9F08830B9F08430C9
:1002F000D1F4809180008F7D03C0809180008F7742
:1003000080938000089584B58F7702C084B58F7D77
:1003100084BD08958091B0008F7703C08091B000B4
:100320008F7D8093B0000895CF93DF93282F30E026
:10033000F901E255FF4F8491F901E656FF4FD49140
:10034000F901EA57FF4FC491CC2391F081110E942B
:100350006B01EC2FF0E0EE0FFF1FE458FF4FA5916B
:10036000B491EC91ED2381E090E021F480E002C0B3
:1003700080E090E0DF91CF910895CF93DF93EC017F
:1003800087E00E949401FE01EC55FF4F918380832A
:1003900088E00E949401CA55DF4F99838883DF91DA
:1003A000CF910895CF93DF9390E0FC01E656FF4F85
:1003B0002491FC01EA57FF4F8491882361F190E07A
:1003C000880F991FFC01E859FF4FC591D491FC019A
:1003D000EE58FF4FA591B491611109C09FB7F894F1
:1003E0008881209582238883EC912E230BC0623074
:1003F00061F49FB7F8943881822F80958323888396
:10040000EC912E2B2C939FBF06C08FB7F894E881F8
:100410002E2B28838FBFDF91CF9108953FB7F8949B
:1004200080913D0190913E01A0913F01B09140012A
:1004300026B5A89B05C02F3F19F00196A11DB11D3F
:100440003FBFBA2FA92F982F8827820F911DA11D7A
:10045000B11DBC01CD0142E0660F771F881F991FB7
:100460004A95D1F708952FB7F894609139017091AA
:100470003A0180913B0190913C012FBF089508956E
:100480001F920F920FB60F9211242F933F934F9309
:100490005F936F937F938F939F93AF93BF93EF93EC
:1004A000FF9381E491E00E94D700FF91EF91BF910B
:1004B000AF919F918F917F916F915F914F913F91FC
:1004C0002F910F900FBE0F901F9018951F920F92B3
:1004D0000FB60F9211242F938F939F93EF93FF9357
:1004E000E0915101F09152018081E0915701F0912A
:1004F000580182FD12C0908180915A018F5F8F73E5
:1005000020915B01821751F0E0915A01F0E0EF5B1E
:10051000FE4F958F80935A0101C08081FF91EF912A
:100520009F918F912F910F900FBE0F901F90189554
:100530001F93CF93DF93282F30E0F901E255FF4F4F
:100540008491F901E656FF4FD491F901EA57FF4F24
:10055000C491CC23C9F0162F81110E946B01EC2F9E
:10056000F0E0EE0FFF1FEE58FF4FA591B4918FB74B
:10057000F894111105C09C91ED2FE095E92302C07C
:10058000EC91ED2BEC938FBFDF91CF911F910895EC
:100590001F93CF93DF93182FEB0161E00E94D201EC
:1005A000209711F460E004C0CF3FD10539F461E039
:1005B000812FDF91CF911F910C949802E12FF0E0F1
:1005C000E255FF4FE491E330F9F048F4E130B9F03F
:1005D000E230A1F584B5806284BDC8BD34C0E73087
:1005E000E9F0E83019F1E43049F58091800080624B
:1005F00080938000D0938B00C0938A0024C084B580
:10060000806884BDC7BD1FC08091800080688093D2
:100610008000D0938900C093880015C08091B000FD
:1006200080688093B000C093B3000DC08091B0008B
:1006300080628093B000C093B40005C0C038D1057B
:100640000CF0B5CFAFCFDF91CF911F9108958F926E
:100650009F92AF92BF92CF92DF92EF92FF926B0187
:100660007C010E940E024B015C01C114D104E10423
:10067000F104F1F00E940E02DC01CB018819990906
:10068000AA09BB09883E9340A105B10570F321E09A
:10069000C21AD108E108F10888EE880E83E0981E9E
:1006A000A11CB11CC114D104E104F10419F7DDCF80
:1006B000FF90EF90DF90CF90BF90AF909F908F9082
:1006C0000895FF920F931F93CF93DF938C010256EF
:1006D0001F4F2BE0F22EEC01C056DF4F61E089E0A6
:1006E0000E949802F80180819181F89EF001F99EA4
:1006F000F00D1124EC50FE4FE230F10538F0EE0F12
:10070000FF1FEE0FFF1F35973197F1F760E089E08B
:100710000E94980264E170E080E090E00E9427036C
:10072000888199819C0121503109398328831816C9
:100730001906A4F219821882DF91CF911F910F91AF
:10074000FF9008951F920F920FB60F9211242F93CE
:100750003F938F939F93AF93BF9380913901909173
:100760003A01A0913B01B0913C013091380123E066
:10077000230F2D3720F40196A11DB11D05C026E8D9
:10078000230F0296A11DB11D2093380180933901DA
:1007900090933A01A0933B01B0933C0180913D01BD
:1007A00090913E01A0913F01B09140010196A11DA1
:1007B000B11D80933D0190933E01A0933F01B09302
:1007C0004001BF91AF919F918F913F912F910F90D9
:1007D0000FBE0F901F9018951F920F920FB60F9299
:1007E00011242F933F934F935F936F937F938F9336
:1007F0009F93AF93BF93EF93FF93E0910201F0912A
:1008000003010995FF91EF91BF91AF919F918F9156
:100810007F916F915F914F913F912F910F900FBEFC
:100820000F901F9018951F920F920FB60F921124E0
:100830002F933F934F935F936F937F938F939F93E8
:10084000AF93BF93EF93FF93E0910001F09101010B
:100850000995FF91EF91BF91AF919F918F917F91FA
:100860006F915F914F913F912F910F900FBE0F901D
:100870001F901895CF93DF93EC0185E090E09F8364
:100880008E838EE090E0998788878FE090E09B8749
:100890008A8786E090E09983888381E190E09D8358
:1008A0008C8380E190E09B838A8361E085E00E94F5
:1008B000D20161E088850E94D20161E08A850E94B0
:1008C000D20161E088810E94D20161E08C810E94A6
:1008D000D20161E08A81DF91CF910C94D201CF9354
:1008E000DF93EC01C855DF4FDC01A656BF4FFC017A
:1008F000E456FF4F8D919C91119720813181280FF3
:10090000391F3595279588819981280F391F39839B
:1009100028831D921C9211821082DF91CF9108953D
:100920002091360130913701FC01E656FF4F40819E
:100930005181240F351F3183208320913401309160
:100940003501329640815181240F351F3183208338
:10095000E998E0E0F1E02FE332E033832283E89886
:1009600031832083FC01EC57FF4F8081918182709D
:10097000992791838083109235011092340110924F
:100980003701109236010895809136019091370118
:100990000196909337018093360108958091340138
:1009A000909135010196909335018093340108951B
:1009B00008959C01FC01EC56FF4F80E0908168E6B1
:1009C00071E00E94D30FAB014F735527607C7727EE
:1009D00060347105E9F01CF4672B41F0089560382C
:1009E000710549F1603C7105B9F10895F901E856C6
:1009F000FF4F69EF6403C001659F900D112493952B
:100A000091838083329780E091E0841B950B35C001
:100A1000F901E856FF4F80E49FEF841B950B91830B
:100A20008083329729EF2403C001259F900D112464
:100A300080549F4F22C0F901E856FF4F67E0649F42
:100A4000C001659F900D11249A9591838083329700
:100A50005A95518340830895F901E856FF4FCA0122
:100A600080549F4F91838083329727E0249FC00159
:100A7000259F900D1124805C9109918380830895B6
:100A8000FC01E657FF4F208131813296318320836C
:100A9000DC01A257BF4F349640815181249FC00191
:100AA000259F900D349F900D1124892F880F880B5E
:100AB0009C9311968C930895FC01E059FF4F80811F
:100AC00091810297FB01918380830895FB018081CE
:100AD00091810196FA01E80FF91F2081222321F06C
:100AE000FB0191838083F2CF0895CF92DF92EF9242
:100AF000FF920F931F93CF93DF93FC01EE58FF4FAC
:100B0000C080D180E280F380EB0128813981FA0135
:100B1000E20FF31FA1818C01C4E0AC9F000D111DF9
:100B20001124D801AE58BF4FCD91DC9111978601A9
:100B30000C1B1D0BE8011281FC01E10FF11DE10FFF
:100B4000F11DEE57FF4F0190F081E02DEC17FD07EE
:100B50000CF045C0CD92DD92ED92FC9213972D5F83
:100B60003F4FEB0139832883FA01E20FF31F208105
:100B700030E0F901FA96EE0FFF1FEE0FFF1FE80FAE
:100B8000F91F0190F081E02D220F331F220F331F38
:100B9000DF01B595A795280F391FE0FD04C0F901C5
:100BA000EA51FF4F0EC0F901EA51FF4FEC01CA0FA5
:100BB000DB1F0990D881C02D20813181FE01E20F19
:100BC000F31F0190F081E02D8A0F9B1FDF91CF91E1
:100BD0001F910F91FF90EF90DF90CF900994DF91DC
:100BE000CF911F910F91FF90EF90DF90CF900C94D9
:100BF0006605AF92BF92CF92DF92EF92FF920F9372
:100C00001F93CF93DF93EC018B017A01FB01C0802E
:100C1000D180FFEFCF1ADF0AFA01EC0DFD1D208114
:100C2000820F911D820F911DFC01EE57FF4FA08096
:100C3000B180FB01D182C0821A141B040CF045C0A4
:100C4000F801808191819C012F5F3F4F3183208388
:100C5000F701E80FF91F8081882381F1F701E20F86
:100C6000F31F208130E0F901FA96EE0FFF1FEE0F1F
:100C7000FF1FEC0FFD1F40815181220F331F220FF8
:100C8000331FCA01959587952C0F3D1FF901EA5135
:100C9000FF4F40FF0AC0DE01A80FB91F4D915C91C4
:100CA00020813181FA01E20FF31F0190F081E02DE4
:100CB000A701B8018C0F9D1F0995C2CFF801D18201
:100CC000C082F1E0AF1AB108B7CFA701B801CE01D9
:100CD000DF91CF911F910F91FF90EF90DF90CF9018
:100CE000BF90AF900C946605EF92FF920F931F9305
:100CF000CF93DF938C01EB017A0128813981FA01CE
:100D0000E20FF31F4181840F911D840F911DDC01BF
:100D1000AE57BF4F6D917C9142812D5F3F4FF701E0
:100D2000E20FF31F5081C801850F911D850F911DA2
:100D3000FC01EE57FF4F808191813983288340FF6A
:100D400003C06817790789F141FF03C06817790765
:100D500064F142FF3EC0861797073CF13AC0998381
:100D60008883880F991F880F991FDC01AA51BF4FF4
:100D7000A00FB11FED91FC91119712962D913C910E
:100D80001397C9019595879520FF0AC0D801A80F30
:100D9000B91F2D913C91E20FF31F0190F081E02DDE
:100DA000A701BE01800F911F099588819981019645
:100DB000F701E80FF91F20812F3F89F6A701BE0137
:100DC000C801DF91CF911F910F91FF90EF900C948C
:100DD000660543FF3EC0888199819C012F5F3F4F8C
:100DE00039832883F701E80FF91F80818F3F99F736
:100DF000288139812F5F3F4FF701E20FF31F808178
:100E0000882339F139832883220F331F220F331FA0
:100E1000D901AA51BF4FA00FB11FED91FC911197BD
:100E200012962D913C911397C9019595879520FFB6
:100E30000AC0D801A80FB91F2D913C91E20FF31FF2
:100E40000190F081E02DA701BE01800F911F09954F
:100E5000CFCFDF91CF911F910F91FF90EF90089529
:100E6000EF92FF920F931F93CF93DF938C017B013F
:100E7000FB0180819181EA01C80FD91F8A81980105
:100E8000280F311D280F311DD901AE57BF4F0D90CE
:100E9000BC91A02D8C819801280F311D280F311D88
:100EA0002E573F4FF901608171819B819330B1F0E2
:100EB00040F4913079F0923011F5AD01461B570B9B
:100EC00029C09530C1F090F09630C9F4AB014A23A7
:100ED0005B2320C0AD01460F571F1CC0A69FA00179
:100EE000A79F500DB69F500D112414C0CD010E9434
:100EF000D30FAB010FC0AB014A2B5B2B0BC0898119
:100F00009801280F311D280F311DD901AE57BF4F51
:100F10004D915C9189819801280F311D280F311D59
:100F2000D901AE57BF4F4D935C93F70180819181FA
:100F3000049691838083DF91CF911F910F91FF9051
:100F4000EF900895CF93DF93DB012D913C911197A2
:100F5000EA01C20FD31FE981F0E04A81242F2F77E5
:100F60005B816FEF269F90011124250F311D3A956B
:100F700047FF03C0319521953109EF5BFF4FEE0F1D
:100F8000FF1FE80FF91F318320838D919C911197EA
:100F900003968D939C93DF91CF910895FC01EC57BC
:100FA000FF4F208131812160318320830895FC012E
:100FB000EC57FF4F118210829C01245F3F4F421774
:100FC000530739F47497808191810297FB019183D3
:100FD000808308958091340190913501019690931A
:100FE000350180933401E8988FE392E090930101FA
:100FF0008093000108958091360190913701019608
:101000009093370180933601E9988FE392E09093B3
:101010000301809302010895FC01EC57FF4F2081EA
:1010200021FF15C02091360130913701769640811D
:101030005181240F351F3183208320913401309159
:101040003501329680819181820F931F1BC084EC01
:1010500094E09093030180930201809169008C6079
:1010600080936900E99A8EEC94E09093010180935B
:10107000000180916900836080936900E89A808113
:1010800091818260918380831092350110923401A6
:1010900010923701109236010895AF92BF92CF920D
:1010A000DF92EF92FF920F931F93CF93DF9300D0C5
:1010B000CDB7DEB78C017B015C0184E8A80EB11CC2
:1010C000F501808191819C0136952795857F82600D
:1010D00091838083F22FF170CF2E20FF18C0809172
:1010E000360190913701F801E656FF4F208131819A
:1010F000820F931F918380838091340190913501F9
:10110000329620813181820F931F918380831092C8
:1011100037011092360110923501109234018BEF95
:1011200097E09093030180930201809169008C60A5
:1011300080936900E99A8AEE97E090930101809389
:10114000000180916900836080936900E89A8BE0D8
:10115000D82E8091360190913701892B31F0809102
:10116000340190913501892B71F4DA94DD2059F026
:1011700064E170E080E090E049835A830E94270395
:101180005A814981E6CFE9988FE392E09093030179
:1011900080930201E898909301018093000180916F
:1011A000360190913701892B09F44CC080913401AC
:1011B00090913501892B09F445C0809136019091B9
:1011C0003701F801E656FF4F20813181820F931FCE
:1011D00091838083809134019091350132962081F2
:1011E0003181820F931F9183808310923701109277
:1011F00036011092350110923401CC2081F0B701F4
:10120000C8010F900F90DF91CF911F910F91FF9028
:10121000EF90DF90CF90BF90AF900C940C08F50149
:10122000808191818D7F918380830F900F90DF91DA
:10123000CF911F910F91FF90EF90DF90CF90BF90D3
:10124000AF900895F50180819181886091838083BA
:10125000B4CFDB01ED91FC9111979F012F5F3F4FC0
:101260002D933C93FA01E20FF31F2081820F911D11
:10127000820F911DFC01EE57FF4F60817181072E97
:10128000000C880B990B0C94270360E085E00E940A
:10129000980260E086E00C949802EF92FF920F9320
:1012A0001F93CF93DF93EC01DC01A257BF4FFC01EA
:1012B000E856FF4F2D913C9180819181289F8001BC
:1012C000299F100D389F100D1124012F110F110BA4
:1012D000B80117FF04C066277727601B710B85E0F4
:1012E0000E94C8027E0182E9E80EF11C61E0F7016C
:1012F00080819181801791070CF060E08EE00E9460
:101300009802F7018081918191958195910961E021
:10131000081719070CF060E08FE00E949802FE01A8
:10132000E457FF4FCA56DF4F208131818881998170
:10133000289FE001299FD00D389FD00D1124CD2F7B
:10134000DD0FDD0BBE01D7FF04C0662777276C1BBE
:101350007D0B86E00E94C80261E0F70180819181E7
:101360008C179D070CF060E081E10E949802F70164
:101370008081918191958195910961E0C817D90784
:101380000CF060E080E1DF91CF911F910F91FF9011
:10139000EF900C949802CF93DF93EC018DE390E0F3
:1013A0000E94010BCE58DF4F488159816A817B81B1
:1013B0002AE081E491E00E94830B6BE271E081E41A
:1013C00091E0DF91CF910C946E0BEF92FF920F930F
:1013D0001F93CF93DF93EC018B017A016EE271E0F2
:1013E00081E491E00E946E0BCE010C96E816F9069E
:1013F00019F083E690E002C080E790E00E94010BC4
:10140000F8014081518160E070E02AE081E491E0E0
:101410000E94830B6BE271E081E491E00E946E0B0D
:10142000A701B801CE01DF91CF911F910F91FF90DD
:10143000EF900C94D7070F931F93CF93DF93FB018B
:10144000308171E0730F272F2F7762E0630FAFEFCA
:101450002A9F90011124260F311D3A9577FF03C072
:10146000319521953109EC01CA57DF4F3983288323
:10147000DC01A059BF4F6D917C911197260F371F4A
:101480002536310578F08F01BF010E94E50988817A
:1014900099810296E80128813981820F931F9983EF
:1014A000888322C011963C932E93208131812E5F38
:1014B0003F4F318320832D913C9111976217730721
:1014C00098F4208131812F5F3F4F318320838C013D
:1014D000060F171F240F351FE90128812150E8014D
:1014E0002C876F5F7F4FE7CFDF91CF911F910F91D7
:1014F0000895FC01E059FF4F11821082FC0114860F
:101500000C941B0AEF92FF920F931F93CF93DF93DC
:101510008C01EB017A018DE390E00E94010BE881E0
:10152000F9819F012F5F3F4F39832883F701E20F35
:10153000F31F40819801240F311D240F311DF90143
:10154000EE57FF4F80819181DF91CF911F910F91D5
:10155000FF90EF900C94CC0B0F931F93CF93DF93DE
:101560008C010E571F4FEC01CA51DF4F8DE390E005
:101570000E94010BF801819191918F010E94CC0B87
:101580000C171D0799F7DF91CF911F910F910895C7
:10159000FC01E059FF4F40815181BC01645F7F4FE6
:1015A00081E491E00C94D40ACF92DF92EF92FF9203
:1015B0000F931F93CF93DF936C017A018B01C0E0EF
:1015C000D0E0CE15DF0589F0D8016D918D01D601EF
:1015D000ED91FC910190F081E02DC6010995892BD8
:1015E00011F47E0102C02196ECCFC701DF91CF91AB
:1015F0001F910F91FF90EF90DF90CF9008950E9480
:101600002E11682F81E491E00C94F800EF92FF9284
:101610000F931F93CF93DF9300D0CDB7DEB77C013C
:101620008B011A82198289819A818E159F0508F093
:101630004CC0FC01EA5DFD4F248530E0F901EE0F5E
:10164000FF1FEE0FFF1FE25FFC4F40815181220F11
:10165000331F220F331FCA019595879540FD04C0A3
:10166000F901E45FFC4F0DC0D901A45FBC4FFC0140
:10167000EA5DFD4F0190F081E02D2D913C91E20F4C
:10168000F31F0190F081E02DA801BE016F5F7F4F35
:101690008A5D9D4F099589819A819C012F5F3F4FFB
:1016A0003A832983F801E20FF31F2081222349F0B6
:1016B000A801BE016F5F7F4F86E292E00E94E509BC
:1016C00004C002969A838983AECF0F900F90DF916A
:1016D000CF911F910F91FF90EF90089561157105C3
:1016E00079F0FB0101900020E9F73197AF01461B2B
:1016F000570BDC01ED91FC910280F381E02D099400
:1017000080E090E008954F925F926F927F92EF9207
:10171000FF920F931F93CF93DF93CDB7DEB7A197BF
:101720000FB6F894DEBF0FBECDBF7C01FA01CB012E
:1017300019A2223008F42AE08E010F5D1F4F422EBD
:10174000512C612C712CBF01A30192010E94B10F99
:10175000F901CA01015011096A3014F4605D01C039
:10176000695CD8016C93232B242B252B61F7B801DE
:10177000C7010E946E0BA1960FB6F894DEBF0FBE94
:10178000CDBFDF91CF911F910F91FF90EF907F9090
:101790006F905F904F900895CF92DF92EF92FF92FB
:1017A000CF93DF936C01990FEE08FF08F7FE1CC082
:1017B000E0914101F09142010190F081E02D6DE254
:1017C00081E491E00995EC0144275527BA014C19B1
:1017D0005D096E097F092AE081E491E00E94830B94
:1017E0007C01EC0EFD1E08C02AE0B701A60181E4D1
:1017F00091E00E94830B7C016BE271E081E491E057
:101800000E946E0B8E0D9F1DDF91CF91FF90EF9088
:10181000DF90CF900895CF93DF93CDB7DEB72C97AD
:101820000FB6F894DEBF0FBECDBF789484B582604A
:1018300084BD84B5816084BD85B5826085BD85B574
:10184000816085BD80916E00816080936E001092F2
:10185000810080918100826080938100809181006D
:1018600081608093810080918000816080938000FE
:101870008091B10084608093B1008091B00081605C
:101880008093B00080917A00846080937A00809188
:101890007A00826080937A0080917A0081608093E0
:1018A0007A0080917A00806880937A001092C1005B
:1018B000109222021092230210922402109225020A
:1018C0001092E0011092E1011092E2011092E30106
:1018D0000E9433026B017C012B013C0128EB420E7C
:1018E0002BE0521E611C711C0E9433026C157D0599
:1018F0008E059F0528F04616570668067906A0F75C
:1019000081E491E09093210280932002E0915101C3
:10191000F091520182E08083E0914D01F0914E01FF
:101920001082E0914F01F091500180E1808310928C
:101930005901E0915501F091560186E08083E091D4
:101940005301F0915401808180618083E0915301C3
:10195000F0915401808188608083E0915301F0917F
:101960005401808180688083E0915301F09154019B
:1019700080818F7D80830E9433026093E0017093A9
:10198000E1018093E2019093E3016CE171E08091C9
:101990002002909121020E946E0B0E9433026B0183
:1019A0007C012B013C013AE0430E511C611C711C6F
:1019B0000E9433026C157D058E059F0528F04616A2
:1019C000570668067906A0F781E08093F401CE01FE
:1019D00001960E943A048CE0FE013196A6E2B2E044
:1019E00001900D928A95E1F7E0915101F091520139
:1019F00082E08083E0914D01F0914E011082E091F0
:101A00004F01F09150018FEC808310925901E091C9
:101A10005501F091560186E08083E0915301F091E9
:101A20005401808180618083E0915301F0915401E1
:101A3000808188608083E0915301F091540180811E
:101A400080688083E0915301F091540180818F7D03
:101A5000808360E083E10E94D20161E082E10E9424
:101A6000D20162E087E00E94D20162E088E00E9439
:101A7000D20161E085E00E94D20161E08EE00E9427
:101A8000D20161E08FE00E94D20161E086E00E9415
:101A9000D20161E081E10E94D20161E080E10E9417
:101AA000D201109232021092970210929602109276
:101AB00098021092990210929A0210929B02E8EA00
:101AC000F2E01192119283E0EC30F807D1F780E454
:101AD00090E09093AF028093AE0284EB90E09093FD
:101AE000B1028093B0029093B3028093B20223EECE
:101AF00030E03093B7022093B6022FE93FEF3093E6
:101B0000B5022093B4021092BB021092BA02109256
:101B1000C1021092C0021092370110923601109249
:101B2000C3021092C20210923501109234012FEFBD
:101B300030E03093BD022093BC023093BF0220936B
:101B4000BE022CE330E03093B9022093B8029093A8
:101B5000C5028093C4021092C7021092C60210926E
:101B6000C9021092C8021092CB021092CA021092BF
:101B7000CD021092CC021092CF021092CE0210929F
:101B8000D1021092D00285EE99E090930D038093DC
:101B90000C0310920F0310920E0387ED97E09093C1
:101BA00011038093100310921303109212038EEC12
:101BB00097E09093150380931403109217031092EB
:101BC000160388EC9AE090931903809318031092FF
:101BD0001B0310921A038BE19AE090931D038093EC
:101BE0001C0310921F0310921E0389E79AE0909342
:101BF00021038093200310922303109222038CEA86
:101C00009AE0909325038093240310922703109267
:101C1000260382E89AE09093290380932803109288
:101C20002B0310922A0382EA97E090932D0380936E
:101C30002C0310922F0310922E0380E397E09093D1
:101C4000310380933003109233031092320384E700
:101C500096E09093350380933403109237031092EB
:101C6000360389EF95E090933903809338031092FF
:101C70003B0310923A0386E695E090933D038093F0
:101C80003C0310923F0310923E038CE595E0909345
:101C9000410380934003109243031092420389E270
:101CA00099E0909345038093440310924703109268
:101CB000460385E795E0909349038093480310928B
:101CC0004B0310924A038BEC99E090934D03809361
:101CD0004C0310924F0310924E038DE499E09093C1
:101CE000510380935003109253031092520385E4E2
:101CF00099E09093550380935403109257031092E8
:101D0000560380E495E09093590380935803109212
:101D10005B0310925A0389ED94E090935D038093E6
:101D20005C0310925F0310925E038DE498E0909341
:101D3000610380936003109263031092620388ED45
:101D400094E090936503809364031092670310926C
:101D500066038CE098E09093690380936803109287
:101D60006B0310926A0320E934E030936D032093F3
:101D70006C0310926F0310926E032FE634E03093E1
:101D8000710320937003109273031092720321E683
:101D900033E030937503209374031092770310920D
:101DA0007603909379038093780310927B031092CB
:101DB0007A038DEB91E090937D0380937C031092E6
:101DC0007F0310927E030E94330260939802709307
:101DD000990280939A0290939B0281E491E00E9481
:101DE000C100181619060CF051C081E491E00E9460
:101DF000C1007C010E9401108C016C015C01AE0CE1
:101E0000BF1CCA14DB0499F10E943302609349019C
:101E100070934A0180934B0190934C01E0914101F2
:101E2000F09142010284F385E02D81E491E009956F
:101E300097FF28C00E9433024090490150904A0108
:101E400060904B0170904C01DC01CB018419950925
:101E5000A609B7094090450150904601609047019E
:101E60007090480184159505A605B705B8F2B8012C
:101E7000C7010E94060B0115110541F0C8010E941F
:101E8000961004C0F60181936F01BBCF8091AA0226
:101E900080FF08C062E372E0809196029091970201
:101EA0000E94060B60919802709199028091AE0297
:101EB0009091AF028B01080F191F0E943302980105
:101EC000261B370BB9011216130634F4072E000C2B
:101ED000880B990B0E9427030E94610174CFE1E4F3
:101EE000F1E01382128288EE93E0A0E0B0E08483F8
:101EF0009583A683B7838EE091E09183808385EC00
:101F000090E09587848784EC90E09787868780ECC3
:101F100090E0918B808B81EC90E0938B828B82ECB4
:101F200090E0958B848B86EC90E0978B868B118E5E
:101F3000128E138E148EEEEDF1E01682178210864B
:101F40001186128613861486158616861786108AC1
:101F5000118A128A138A148A158A86E292E00C94F6
:101F60003A04A1E21A2EAA1BBB1BFD010DC0AA1F39
:101F7000BB1FEE1FFF1FA217B307E407F50720F0F2
:101F8000A21BB30BE40BF50B661F771F881F991F6D
:101F90001A9469F760957095809590959B01AC01B6
:101FA000BD01CF01089597FB072E16F4009407D0CA
:101FB00077FD09D00E94E70F07FC05D03EF490950D
:101FC00081959F4F0895709561957F4F0895AA1B45
:101FD000BB1B51E107C0AA1FBB1FA617B70710F014
:101FE000A61BB70B881F991F5A95A9F78095909546
:101FF000BC01CD010895EE0FFF1F0590F491E02D77
:102000000994CF93DF938230910510F482E090E041
:10201000E0918203F091830320E030E0C0E0D0E063
:10202000309711F14081518148175907C0F0481786
:10203000590761F482819381209719F09B838A83E9
:102040002BC0909383038093820326C02115310512
:1020500019F04217530718F49A01BE01DF01EF018E
:102060000280F381E02DDCCF2115310509F1281B19
:10207000390B2430310590F412968D919C91139771
:102080006115710521F0FB019383828304C0909355
:10209000830380938203FD01329644C0FD01E20F69
:1020A000F31F81939193225031092D933C933AC0B1
:1020B0002091800330918103232B41F4209106016C
:1020C0003091070130938103209380032091040114
:1020D000309105012115310541F42DB73EB74091EE
:1020E000080150910901241B350BE0918003F09108
:1020F0008103E217F307A0F42E1B3F0B28173907C3
:1021000078F0AC014E5F5F4F2417350748F04E0F53
:102110005F1F50938103409380038193919302C08A
:10212000E0E0F0E0CF01DF91CF9108950F931F938E
:10213000CF93DF93009709F48CC0FC013297138290
:10214000128200918203109183030115110581F41D
:1021500020813181820F931F209180033091810370
:102160002817390779F5F0938103E093800371C054
:10217000D80140E050E0AE17BF0750F412962D9101
:102180003C911397AD012115310509F1D901F3CF28
:102190009D01DA013383228360817181860F971F4D
:1021A0008217930769F4EC0128813981260F371FC4
:1021B0002E5F3F4F318320838A819B81938382836B
:1021C000452B29F4F0938303E093820342C01396D6
:1021D000FC93EE931297ED01499159919E01240FC2
:1021E000351FE217F30771F480819181840F951FE9
:1021F000029611969C938E938281938113969C9361
:102200008E931297E0E0F0E0D80112968D919C91A8
:102210001397009719F0F8018C01F6CF8D919C91DE
:1022200098012E5F3F4F820F931F209180033091C2
:1022300081032817390769F4309729F41092830332
:102240001092820302C013821282109381030093C2
:102250008003DF91CF911F910F91089581E090E06D
:0A226000F8940C943311F894FFCFAA
:10226A003F023F0200008403800000000000F800E3
:10227A00D40A90003F01C1009F00B300564D44505C
:10228A00565F317C315F564D4450560D0A004572F7
:04229A00725F00006F
:00000001FF
